{
  "contractName": "Graphitev4",
  "abi": [
    {
      "anonymous": false,
      "inputs": [
        {
          "indexed": false,
          "internalType": "address",
          "name": "previousAdmin",
          "type": "address"
        },
        {
          "indexed": false,
          "internalType": "address",
          "name": "newAdmin",
          "type": "address"
        }
      ],
      "name": "AdminChanged",
      "type": "event"
    },
    {
      "anonymous": false,
      "inputs": [
        {
          "indexed": true,
          "internalType": "address",
          "name": "owner",
          "type": "address"
        },
        {
          "indexed": true,
          "internalType": "address",
          "name": "spender",
          "type": "address"
        },
        {
          "indexed": false,
          "internalType": "uint256",
          "name": "value",
          "type": "uint256"
        }
      ],
      "name": "Approval",
      "type": "event"
    },
    {
      "anonymous": false,
      "inputs": [
        {
          "indexed": true,
          "internalType": "address",
          "name": "beacon",
          "type": "address"
        }
      ],
      "name": "BeaconUpgraded",
      "type": "event"
    },
    {
      "anonymous": false,
      "inputs": [
        {
          "indexed": true,
          "internalType": "address",
          "name": "previousOwner",
          "type": "address"
        },
        {
          "indexed": true,
          "internalType": "address",
          "name": "newOwner",
          "type": "address"
        }
      ],
      "name": "OwnershipTransferred",
      "type": "event"
    },
    {
      "anonymous": false,
      "inputs": [
        {
          "indexed": true,
          "internalType": "address",
          "name": "from",
          "type": "address"
        },
        {
          "indexed": true,
          "internalType": "address",
          "name": "to",
          "type": "address"
        },
        {
          "indexed": false,
          "internalType": "uint256",
          "name": "value",
          "type": "uint256"
        }
      ],
      "name": "Transfer",
      "type": "event"
    },
    {
      "anonymous": false,
      "inputs": [
        {
          "indexed": true,
          "internalType": "address",
          "name": "implementation",
          "type": "address"
        }
      ],
      "name": "Upgraded",
      "type": "event"
    },
    {
      "inputs": [
        {
          "internalType": "address",
          "name": "owner",
          "type": "address"
        },
        {
          "internalType": "address",
          "name": "spender",
          "type": "address"
        }
      ],
      "name": "allowance",
      "outputs": [
        {
          "internalType": "uint256",
          "name": "",
          "type": "uint256"
        }
      ],
      "stateMutability": "view",
      "type": "function",
      "constant": true
    },
    {
      "inputs": [
        {
          "internalType": "address",
          "name": "spender",
          "type": "address"
        },
        {
          "internalType": "uint256",
          "name": "amount",
          "type": "uint256"
        }
      ],
      "name": "approve",
      "outputs": [
        {
          "internalType": "bool",
          "name": "",
          "type": "bool"
        }
      ],
      "stateMutability": "nonpayable",
      "type": "function"
    },
    {
      "inputs": [
        {
          "internalType": "address",
          "name": "account",
          "type": "address"
        }
      ],
      "name": "balanceOf",
      "outputs": [
        {
          "internalType": "uint256",
          "name": "",
          "type": "uint256"
        }
      ],
      "stateMutability": "view",
      "type": "function",
      "constant": true
    },
    {
      "inputs": [
        {
          "internalType": "address",
          "name": "spender",
          "type": "address"
        },
        {
          "internalType": "uint256",
          "name": "subtractedValue",
          "type": "uint256"
        }
      ],
      "name": "decreaseAllowance",
      "outputs": [
        {
          "internalType": "bool",
          "name": "",
          "type": "bool"
        }
      ],
      "stateMutability": "nonpayable",
      "type": "function"
    },
    {
      "inputs": [
        {
          "internalType": "address",
          "name": "spender",
          "type": "address"
        },
        {
          "internalType": "uint256",
          "name": "addedValue",
          "type": "uint256"
        }
      ],
      "name": "increaseAllowance",
      "outputs": [
        {
          "internalType": "bool",
          "name": "",
          "type": "bool"
        }
      ],
      "stateMutability": "nonpayable",
      "type": "function"
    },
    {
      "inputs": [],
      "name": "name",
      "outputs": [
        {
          "internalType": "string",
          "name": "",
          "type": "string"
        }
      ],
      "stateMutability": "view",
      "type": "function",
      "constant": true
    },
    {
      "inputs": [],
      "name": "owner",
      "outputs": [
        {
          "internalType": "address",
          "name": "",
          "type": "address"
        }
      ],
      "stateMutability": "view",
      "type": "function",
      "constant": true
    },
    {
      "inputs": [],
      "name": "renounceOwnership",
      "outputs": [],
      "stateMutability": "nonpayable",
      "type": "function"
    },
    {
      "inputs": [],
      "name": "symbol",
      "outputs": [
        {
          "internalType": "string",
          "name": "",
          "type": "string"
        }
      ],
      "stateMutability": "view",
      "type": "function",
      "constant": true
    },
    {
      "inputs": [],
      "name": "totalSupply",
      "outputs": [
        {
          "internalType": "uint256",
          "name": "",
          "type": "uint256"
        }
      ],
      "stateMutability": "view",
      "type": "function",
      "constant": true
    },
    {
      "inputs": [
        {
          "internalType": "address",
          "name": "recipient",
          "type": "address"
        },
        {
          "internalType": "uint256",
          "name": "amount",
          "type": "uint256"
        }
      ],
      "name": "transfer",
      "outputs": [
        {
          "internalType": "bool",
          "name": "",
          "type": "bool"
        }
      ],
      "stateMutability": "nonpayable",
      "type": "function"
    },
    {
      "inputs": [
        {
          "internalType": "address",
          "name": "sender",
          "type": "address"
        },
        {
          "internalType": "address",
          "name": "recipient",
          "type": "address"
        },
        {
          "internalType": "uint256",
          "name": "amount",
          "type": "uint256"
        }
      ],
      "name": "transferFrom",
      "outputs": [
        {
          "internalType": "bool",
          "name": "",
          "type": "bool"
        }
      ],
      "stateMutability": "nonpayable",
      "type": "function"
    },
    {
      "inputs": [
        {
          "internalType": "address",
          "name": "newOwner",
          "type": "address"
        }
      ],
      "name": "transferOwnership",
      "outputs": [],
      "stateMutability": "nonpayable",
      "type": "function"
    },
    {
      "inputs": [
        {
          "internalType": "address",
          "name": "newImplementation",
          "type": "address"
        }
      ],
      "name": "upgradeTo",
      "outputs": [],
      "stateMutability": "nonpayable",
      "type": "function"
    },
    {
      "inputs": [
        {
          "internalType": "address",
          "name": "newImplementation",
          "type": "address"
        },
        {
          "internalType": "bytes",
          "name": "data",
          "type": "bytes"
        }
      ],
      "name": "upgradeToAndCall",
      "outputs": [],
      "stateMutability": "payable",
      "type": "function",
      "payable": true
    },
    {
      "inputs": [],
      "name": "initialize",
      "outputs": [],
      "stateMutability": "nonpayable",
      "type": "function"
    },
    {
      "inputs": [
        {
          "internalType": "address",
          "name": "to",
          "type": "address"
        },
        {
          "internalType": "uint256",
          "name": "amount",
          "type": "uint256"
        }
      ],
      "name": "mint",
      "outputs": [],
      "stateMutability": "nonpayable",
      "type": "function"
    },
    {
      "inputs": [],
      "name": "getVersion",
      "outputs": [
        {
          "internalType": "string",
          "name": "",
          "type": "string"
        }
      ],
      "stateMutability": "pure",
      "type": "function",
      "constant": true
    },
    {
      "inputs": [],
      "name": "getTokenName",
      "outputs": [
        {
          "internalType": "string",
          "name": "",
          "type": "string"
        }
      ],
      "stateMutability": "view",
      "type": "function",
      "constant": true
    },
    {
      "inputs": [],
      "name": "getTokenSymbol",
      "outputs": [
        {
          "internalType": "string",
          "name": "",
          "type": "string"
        }
      ],
      "stateMutability": "view",
      "type": "function",
      "constant": true
    },
    {
      "inputs": [],
      "name": "decimals",
      "outputs": [
        {
          "internalType": "uint8",
          "name": "",
          "type": "uint8"
        }
      ],
      "stateMutability": "pure",
      "type": "function",
      "constant": true
    }
  ],
  "bytecode": "0x60a06040523073ffffffffffffffffffffffffffffffffffffffff1660809073ffffffffffffffffffffffffffffffffffffffff1660601b81525034801561004657600080fd5b5060805160601c612f8961007a600039600081816106ed0152818161077c015281816109d20152610a610152612f896000f3fe60806040526004361061012a5760003560e01c806370a08231116100ab57806395d89b411161006f57806395d89b41146103c1578063a457c2d7146103ec578063a9059cbb14610429578063dd62ed3e14610466578063f1850af8146104a3578063f2fde38b146104ce5761012a565b806370a0823114610300578063715018a61461033d5780638129fc1c14610354578063862b092b1461036b5780638da5cb5b146103965761012a565b8063313ce567116100f2578063313ce5671461022a5780633659cfe614610255578063395093511461027e57806340c10f19146102bb5780634f1ef286146102e45761012a565b806306fdde031461012f578063095ea7b31461015a5780630d8e6e2c1461019757806318160ddd146101c257806323b872dd146101ed575b600080fd5b34801561013b57600080fd5b506101446104f7565b604051610151919061251d565b60405180910390f35b34801561016657600080fd5b50610181600480360381019061017c919061219b565b610589565b60405161018e9190612502565b60405180910390f35b3480156101a357600080fd5b506101ac6105a7565b6040516101b9919061251d565b60405180910390f35b3480156101ce57600080fd5b506101d76105e4565b6040516101e4919061275f565b60405180910390f35b3480156101f957600080fd5b50610214600480360381019061020f91906120f8565b6105ee565b6040516102219190612502565b60405180910390f35b34801561023657600080fd5b5061023f6106e6565b60405161024c919061277a565b60405180910390f35b34801561026157600080fd5b5061027c60048036038101906102779190612093565b6106eb565b005b34801561028a57600080fd5b506102a560048036038101906102a0919061219b565b61089a565b6040516102b29190612502565b60405180910390f35b3480156102c757600080fd5b506102e260048036038101906102dd919061219b565b610946565b005b6102fe60048036038101906102f99190612147565b6109d0565b005b34801561030c57600080fd5b5061032760048036038101906103229190612093565b610b0d565b604051610334919061275f565b60405180910390f35b34801561034957600080fd5b50610352610b56565b005b34801561036057600080fd5b50610369610bde565b005b34801561037757600080fd5b50610380610d46565b60405161038d919061251d565b60405180910390f35b3480156103a257600080fd5b506103ab610d55565b6040516103b891906124e7565b60405180910390f35b3480156103cd57600080fd5b506103d6610d7f565b6040516103e3919061251d565b60405180910390f35b3480156103f857600080fd5b50610413600480360381019061040e919061219b565b610e11565b6040516104209190612502565b60405180910390f35b34801561043557600080fd5b50610450600480360381019061044b919061219b565b610efc565b60405161045d9190612502565b60405180910390f35b34801561047257600080fd5b5061048d600480360381019061048891906120bc565b610f1a565b60405161049a919061275f565b60405180910390f35b3480156104af57600080fd5b506104b8610fa1565b6040516104c5919061251d565b60405180910390f35b3480156104da57600080fd5b506104f560048036038101906104f09190612093565b610fb0565b005b6060603680546105069061290a565b80601f01602080910402602001604051908101604052809291908181526020018280546105329061290a565b801561057f5780601f106105545761010080835404028352916020019161057f565b820191906000526020600020905b81548152906001019060200180831161056257829003601f168201915b5050505050905090565b600061059d6105966110a8565b84846110b0565b6001905092915050565b60606040518060400160405280601481526020017f47726170686974652056657273696f6e202d2034000000000000000000000000815250905090565b6000603554905090565b60006105fb84848461127b565b6000603460008673ffffffffffffffffffffffffffffffffffffffff1673ffffffffffffffffffffffffffffffffffffffff16815260200190815260200160002060006106466110a8565b73ffffffffffffffffffffffffffffffffffffffff1673ffffffffffffffffffffffffffffffffffffffff168152602001908152602001600020549050828110156106c6576040517f08c379a00000000000000000000000000000000000000000000000000000000081526004016106bd9061265f565b60405180910390fd5b6106da856106d26110a8565b8584036110b0565b60019150509392505050565b600090565b7f000000000000000000000000000000000000000000000000000000000000000073ffffffffffffffffffffffffffffffffffffffff163073ffffffffffffffffffffffffffffffffffffffff16141561077a576040517f08c379a0000000000000000000000000000000000000000000000000000000008152600401610771906125bf565b60405180910390fd5b7f000000000000000000000000000000000000000000000000000000000000000073ffffffffffffffffffffffffffffffffffffffff166107b96114ff565b73ffffffffffffffffffffffffffffffffffffffff161461080f576040517f08c379a0000000000000000000000000000000000000000000000000000000008152600401610806906125ff565b60405180910390fd5b61081881611556565b61089781600067ffffffffffffffff81111561085d577f4e487b7100000000000000000000000000000000000000000000000000000000600052604160045260246000fd5b6040519080825280601f01601f19166020018201604052801561088f5781602001600182028036833780820191505090505b5060006115d5565b50565b600061093c6108a76110a8565b8484603460006108b56110a8565b73ffffffffffffffffffffffffffffffffffffffff1673ffffffffffffffffffffffffffffffffffffffff16815260200190815260200160002060008873ffffffffffffffffffffffffffffffffffffffff1673ffffffffffffffffffffffffffffffffffffffff16815260200190815260200160002054610937919061281d565b6110b0565b6001905092915050565b61094e6110a8565b73ffffffffffffffffffffffffffffffffffffffff1661096c610d55565b73ffffffffffffffffffffffffffffffffffffffff16146109c2576040517f08c379a00000000000000000000000000000000000000000000000000000000081526004016109b99061267f565b60405180910390fd5b6109cc82826117a6565b5050565b7f000000000000000000000000000000000000000000000000000000000000000073ffffffffffffffffffffffffffffffffffffffff163073ffffffffffffffffffffffffffffffffffffffff161415610a5f576040517f08c379a0000000000000000000000000000000000000000000000000000000008152600401610a56906125bf565b60405180910390fd5b7f000000000000000000000000000000000000000000000000000000000000000073ffffffffffffffffffffffffffffffffffffffff16610a9e6114ff565b73ffffffffffffffffffffffffffffffffffffffff1614610af4576040517f08c379a0000000000000000000000000000000000000000000000000000000008152600401610aeb906125ff565b60405180910390fd5b610afd82611556565b610b09828260016115d5565b5050565b6000603360008373ffffffffffffffffffffffffffffffffffffffff1673ffffffffffffffffffffffffffffffffffffffff168152602001908152602001600020549050919050565b610b5e6110a8565b73ffffffffffffffffffffffffffffffffffffffff16610b7c610d55565b73ffffffffffffffffffffffffffffffffffffffff1614610bd2576040517f08c379a0000000000000000000000000000000000000000000000000000000008152600401610bc99061267f565b60405180910390fd5b610bdc6000611907565b565b600060019054906101000a900460ff16610c065760008054906101000a900460ff1615610c0f565b610c0e6119cd565b5b610c4e576040517f08c379a0000000000000000000000000000000000000000000000000000000008152600401610c459061261f565b60405180910390fd5b60008060019054906101000a900460ff161590508015610c9e576001600060016101000a81548160ff02191690831515021790555060016000806101000a81548160ff0219169083151502179055505b610d126040518060400160405280600881526020017f47726170686974650000000000000000000000000000000000000000000000008152506040518060400160405280600581526020017f47524150480000000000000000000000000000000000000000000000000000008152506119de565b610d1a611a43565b610d22611aa4565b8015610d435760008060016101000a81548160ff0219169083151502179055505b50565b6060610d506104f7565b905090565b6000606560009054906101000a900473ffffffffffffffffffffffffffffffffffffffff16905090565b606060378054610d8e9061290a565b80601f0160208091040260200160405190810160405280929190818152602001828054610dba9061290a565b8015610e075780601f10610ddc57610100808354040283529160200191610e07565b820191906000526020600020905b815481529060010190602001808311610dea57829003601f168201915b5050505050905090565b60008060346000610e206110a8565b73ffffffffffffffffffffffffffffffffffffffff1673ffffffffffffffffffffffffffffffffffffffff16815260200190815260200160002060008573ffffffffffffffffffffffffffffffffffffffff1673ffffffffffffffffffffffffffffffffffffffff16815260200190815260200160002054905082811015610edd576040517f08c379a0000000000000000000000000000000000000000000000000000000008152600401610ed49061271f565b60405180910390fd5b610ef1610ee86110a8565b858584036110b0565b600191505092915050565b6000610f10610f096110a8565b848461127b565b6001905092915050565b6000603460008473ffffffffffffffffffffffffffffffffffffffff1673ffffffffffffffffffffffffffffffffffffffff16815260200190815260200160002060008373ffffffffffffffffffffffffffffffffffffffff1673ffffffffffffffffffffffffffffffffffffffff16815260200190815260200160002054905092915050565b6060610fab610d7f565b905090565b610fb86110a8565b73ffffffffffffffffffffffffffffffffffffffff16610fd6610d55565b73ffffffffffffffffffffffffffffffffffffffff161461102c576040517f08c379a00000000000000000000000000000000000000000000000000000000081526004016110239061267f565b60405180910390fd5b600073ffffffffffffffffffffffffffffffffffffffff168173ffffffffffffffffffffffffffffffffffffffff16141561109c576040517f08c379a00000000000000000000000000000000000000000000000000000000081526004016110939061257f565b60405180910390fd5b6110a581611907565b50565b600033905090565b600073ffffffffffffffffffffffffffffffffffffffff168373ffffffffffffffffffffffffffffffffffffffff161415611120576040517f08c379a0000000000000000000000000000000000000000000000000000000008152600401611117906126df565b60405180910390fd5b600073ffffffffffffffffffffffffffffffffffffffff168273ffffffffffffffffffffffffffffffffffffffff161415611190576040517f08c379a00000000000000000000000000000000000000000000000000000000081526004016111879061259f565b60405180910390fd5b80603460008573ffffffffffffffffffffffffffffffffffffffff1673ffffffffffffffffffffffffffffffffffffffff16815260200190815260200160002060008473ffffffffffffffffffffffffffffffffffffffff1673ffffffffffffffffffffffffffffffffffffffff168152602001908152602001600020819055508173ffffffffffffffffffffffffffffffffffffffff168373ffffffffffffffffffffffffffffffffffffffff167f8c5be1e5ebec7d5bd14f71427d1e84f3dd0314c0f7b2291e5b200ac8c7c3b9258360405161126e919061275f565b60405180910390a3505050565b600073ffffffffffffffffffffffffffffffffffffffff168373ffffffffffffffffffffffffffffffffffffffff1614156112eb576040517f08c379a00000000000000000000000000000000000000000000000000000000081526004016112e2906126bf565b60405180910390fd5b600073ffffffffffffffffffffffffffffffffffffffff168273ffffffffffffffffffffffffffffffffffffffff16141561135b576040517f08c379a00000000000000000000000000000000000000000000000000000000081526004016113529061253f565b60405180910390fd5b611366838383611b05565b6000603360008573ffffffffffffffffffffffffffffffffffffffff1673ffffffffffffffffffffffffffffffffffffffff168152602001908152602001600020549050818110156113ed576040517f08c379a00000000000000000000000000000000000000000000000000000000081526004016113e4906125df565b60405180910390fd5b818103603360008673ffffffffffffffffffffffffffffffffffffffff1673ffffffffffffffffffffffffffffffffffffffff1681526020019081526020016000208190555081603360008573ffffffffffffffffffffffffffffffffffffffff1673ffffffffffffffffffffffffffffffffffffffff1681526020019081526020016000206000828254611482919061281d565b925050819055508273ffffffffffffffffffffffffffffffffffffffff168473ffffffffffffffffffffffffffffffffffffffff167fddf252ad1be2c89b69c2b068fc378daa952ba7f163c4a11628f55a4df523b3ef846040516114e6919061275f565b60405180910390a36114f9848484611b0a565b50505050565b600061152d7f360894a13ba1a3210667c828492db98dca3e2076cc3735a920a3ca505d382bbc60001b611b0f565b60000160009054906101000a900473ffffffffffffffffffffffffffffffffffffffff16905090565b61155e6110a8565b73ffffffffffffffffffffffffffffffffffffffff1661157c610d55565b73ffffffffffffffffffffffffffffffffffffffff16146115d2576040517f08c379a00000000000000000000000000000000000000000000000000000000081526004016115c99061267f565b60405180910390fd5b50565b60006115df6114ff565b90506115ea84611b19565b6000835111806115f75750815b15611608576116068484611bd2565b505b60006116367f4910fdfa16fed3260ed0e7147f7cc6da11a60208b5b9406d12a635614ffd914360001b611cb6565b90508060000160009054906101000a900460ff1661179f5760018160000160006101000a81548160ff021916908315150217905550611702858360405160240161168091906124e7565b6040516020818303038152906040527f3659cfe6000000000000000000000000000000000000000000000000000000007bffffffffffffffffffffffffffffffffffffffffffffffffffffffff19166020820180517bffffffffffffffffffffffffffffffffffffffffffffffffffffffff8381831617835250505050611bd2565b5060008160000160006101000a81548160ff0219169083151502179055506117286114ff565b73ffffffffffffffffffffffffffffffffffffffff168273ffffffffffffffffffffffffffffffffffffffff1614611795576040517f08c379a000000000000000000000000000000000000000000000000000000000815260040161178c9061255f565b60405180910390fd5b61179e85611cc0565b5b5050505050565b600073ffffffffffffffffffffffffffffffffffffffff168273ffffffffffffffffffffffffffffffffffffffff161415611816576040517f08c379a000000000000000000000000000000000000000000000000000000000815260040161180d9061273f565b60405180910390fd5b61182260008383611b05565b8060356000828254611834919061281d565b9250508190555080603360008473ffffffffffffffffffffffffffffffffffffffff1673ffffffffffffffffffffffffffffffffffffffff168152602001908152602001600020600082825461188a919061281d565b925050819055508173ffffffffffffffffffffffffffffffffffffffff16600073ffffffffffffffffffffffffffffffffffffffff167fddf252ad1be2c89b69c2b068fc378daa952ba7f163c4a11628f55a4df523b3ef836040516118ef919061275f565b60405180910390a361190360008383611b0a565b5050565b6000606560009054906101000a900473ffffffffffffffffffffffffffffffffffffffff16905081606560006101000a81548173ffffffffffffffffffffffffffffffffffffffff021916908373ffffffffffffffffffffffffffffffffffffffff1602179055508173ffffffffffffffffffffffffffffffffffffffff168173ffffffffffffffffffffffffffffffffffffffff167f8be0079c531659141344cd1fd0a4f28419497f9722a3daafe3b4186f6b6457e060405160405180910390a35050565b60006119d830611d0f565b15905090565b600060019054906101000a900460ff16611a2d576040517f08c379a0000000000000000000000000000000000000000000000000000000008152600401611a24906126ff565b60405180910390fd5b611a35611d22565b611a3f8282611d73565b5050565b600060019054906101000a900460ff16611a92576040517f08c379a0000000000000000000000000000000000000000000000000000000008152600401611a89906126ff565b60405180910390fd5b611a9a611d22565b611aa2611df4565b565b600060019054906101000a900460ff16611af3576040517f08c379a0000000000000000000000000000000000000000000000000000000008152600401611aea906126ff565b60405180910390fd5b611afb611e55565b611b03611ea6565b565b505050565b505050565b6000819050919050565b611b2281611d0f565b611b61576040517f08c379a0000000000000000000000000000000000000000000000000000000008152600401611b589061263f565b60405180910390fd5b80611b8e7f360894a13ba1a3210667c828492db98dca3e2076cc3735a920a3ca505d382bbc60001b611b0f565b60000160006101000a81548173ffffffffffffffffffffffffffffffffffffffff021916908373ffffffffffffffffffffffffffffffffffffffff16021790555050565b6060611bdd83611d0f565b611c1c576040517f08c379a0000000000000000000000000000000000000000000000000000000008152600401611c139061269f565b60405180910390fd5b6000808473ffffffffffffffffffffffffffffffffffffffff1684604051611c4491906124d0565b600060405180830381855af49150503d8060008114611c7f576040519150601f19603f3d011682016040523d82523d6000602084013e611c84565b606091505b5091509150611cac8282604051806060016040528060278152602001612f2d60279139611ef7565b9250505092915050565b6000819050919050565b611cc981611b19565b8073ffffffffffffffffffffffffffffffffffffffff167fbc7cd75a20ee27fd9adebab32041f755214dbc6bffa90cc0225b39da2e5c2d3b60405160405180910390a250565b600080823b905060008111915050919050565b600060019054906101000a900460ff16611d71576040517f08c379a0000000000000000000000000000000000000000000000000000000008152600401611d68906126ff565b60405180910390fd5b565b600060019054906101000a900460ff16611dc2576040517f08c379a0000000000000000000000000000000000000000000000000000000008152600401611db9906126ff565b60405180910390fd5b8160369080519060200190611dd8929190611f5e565b508060379080519060200190611def929190611f5e565b505050565b600060019054906101000a900460ff16611e43576040517f08c379a0000000000000000000000000000000000000000000000000000000008152600401611e3a906126ff565b60405180910390fd5b611e53611e4e6110a8565b611907565b565b600060019054906101000a900460ff16611ea4576040517f08c379a0000000000000000000000000000000000000000000000000000000008152600401611e9b906126ff565b60405180910390fd5b565b600060019054906101000a900460ff16611ef5576040517f08c379a0000000000000000000000000000000000000000000000000000000008152600401611eec906126ff565b60405180910390fd5b565b60608315611f0757829050611f57565b600083511115611f1a5782518084602001fd5b816040517f08c379a0000000000000000000000000000000000000000000000000000000008152600401611f4e919061251d565b60405180910390fd5b9392505050565b828054611f6a9061290a565b90600052602060002090601f016020900481019282611f8c5760008555611fd3565b82601f10611fa557805160ff1916838001178555611fd3565b82800160010185558215611fd3579182015b82811115611fd2578251825591602001919060010190611fb7565b5b509050611fe09190611fe4565b5090565b5b80821115611ffd576000816000905550600101611fe5565b5090565b600061201461200f846127ba565b612795565b90508281526020810184848401111561202c57600080fd5b6120378482856128c8565b509392505050565b60008135905061204e81612efe565b92915050565b600082601f83011261206557600080fd5b8135612075848260208601612001565b91505092915050565b60008135905061208d81612f15565b92915050565b6000602082840312156120a557600080fd5b60006120b38482850161203f565b91505092915050565b600080604083850312156120cf57600080fd5b60006120dd8582860161203f565b92505060206120ee8582860161203f565b9150509250929050565b60008060006060848603121561210d57600080fd5b600061211b8682870161203f565b935050602061212c8682870161203f565b925050604061213d8682870161207e565b9150509250925092565b6000806040838503121561215a57600080fd5b60006121688582860161203f565b925050602083013567ffffffffffffffff81111561218557600080fd5b61219185828601612054565b9150509250929050565b600080604083850312156121ae57600080fd5b60006121bc8582860161203f565b92505060206121cd8582860161207e565b9150509250929050565b6121e081612873565b82525050565b6121ef81612885565b82525050565b6000612200826127eb565b61220a8185612801565b935061221a8185602086016128d7565b80840191505092915050565b6000612231826127f6565b61223b818561280c565b935061224b8185602086016128d7565b612254816129fa565b840191505092915050565b600061226c60238361280c565b915061227782612a0b565b604082019050919050565b600061228f602f8361280c565b915061229a82612a5a565b604082019050919050565b60006122b260268361280c565b91506122bd82612aa9565b604082019050919050565b60006122d560228361280c565b91506122e082612af8565b604082019050919050565b60006122f8602c8361280c565b915061230382612b47565b604082019050919050565b600061231b60268361280c565b915061232682612b96565b604082019050919050565b600061233e602c8361280c565b915061234982612be5565b604082019050919050565b6000612361602e8361280c565b915061236c82612c34565b604082019050919050565b6000612384602d8361280c565b915061238f82612c83565b604082019050919050565b60006123a760288361280c565b91506123b282612cd2565b604082019050919050565b60006123ca60208361280c565b91506123d582612d21565b602082019050919050565b60006123ed60268361280c565b91506123f882612d4a565b604082019050919050565b600061241060258361280c565b915061241b82612d99565b604082019050919050565b600061243360248361280c565b915061243e82612de8565b604082019050919050565b6000612456602b8361280c565b915061246182612e37565b604082019050919050565b600061247960258361280c565b915061248482612e86565b604082019050919050565b600061249c601f8361280c565b91506124a782612ed5565b602082019050919050565b6124bb816128b1565b82525050565b6124ca816128bb565b82525050565b60006124dc82846121f5565b915081905092915050565b60006020820190506124fc60008301846121d7565b92915050565b600060208201905061251760008301846121e6565b92915050565b600060208201905081810360008301526125378184612226565b905092915050565b600060208201905081810360008301526125588161225f565b9050919050565b6000602082019050818103600083015261257881612282565b9050919050565b60006020820190508181036000830152612598816122a5565b9050919050565b600060208201905081810360008301526125b8816122c8565b9050919050565b600060208201905081810360008301526125d8816122eb565b9050919050565b600060208201905081810360008301526125f88161230e565b9050919050565b6000602082019050818103600083015261261881612331565b9050919050565b6000602082019050818103600083015261263881612354565b9050919050565b6000602082019050818103600083015261265881612377565b9050919050565b600060208201905081810360008301526126788161239a565b9050919050565b60006020820190508181036000830152612698816123bd565b9050919050565b600060208201905081810360008301526126b8816123e0565b9050919050565b600060208201905081810360008301526126d881612403565b9050919050565b600060208201905081810360008301526126f881612426565b9050919050565b6000602082019050818103600083015261271881612449565b9050919050565b600060208201905081810360008301526127388161246c565b9050919050565b600060208201905081810360008301526127588161248f565b9050919050565b600060208201905061277460008301846124b2565b92915050565b600060208201905061278f60008301846124c1565b92915050565b600061279f6127b0565b90506127ab828261293c565b919050565b6000604051905090565b600067ffffffffffffffff8211156127d5576127d46129cb565b5b6127de826129fa565b9050602081019050919050565b600081519050919050565b600081519050919050565b600081905092915050565b600082825260208201905092915050565b6000612828826128b1565b9150612833836128b1565b9250827fffffffffffffffffffffffffffffffffffffffffffffffffffffffffffffffff038211156128685761286761296d565b5b828201905092915050565b600061287e82612891565b9050919050565b60008115159050919050565b600073ffffffffffffffffffffffffffffffffffffffff82169050919050565b6000819050919050565b600060ff82169050919050565b82818337600083830152505050565b60005b838110156128f55780820151818401526020810190506128da565b83811115612904576000848401525b50505050565b6000600282049050600182168061292257607f821691505b602082108114156129365761293561299c565b5b50919050565b612945826129fa565b810181811067ffffffffffffffff82111715612964576129636129cb565b5b80604052505050565b7f4e487b7100000000000000000000000000000000000000000000000000000000600052601160045260246000fd5b7f4e487b7100000000000000000000000000000000000000000000000000000000600052602260045260246000fd5b7f4e487b7100000000000000000000000000000000000000000000000000000000600052604160045260246000fd5b6000601f19601f8301169050919050565b7f45524332303a207472616e7366657220746f20746865207a65726f206164647260008201527f6573730000000000000000000000000000000000000000000000000000000000602082015250565b7f45524331393637557067726164653a207570677261646520627265616b73206660008201527f7572746865722075706772616465730000000000000000000000000000000000602082015250565b7f4f776e61626c653a206e6577206f776e657220697320746865207a65726f206160008201527f6464726573730000000000000000000000000000000000000000000000000000602082015250565b7f45524332303a20617070726f766520746f20746865207a65726f20616464726560008201527f7373000000000000000000000000000000000000000000000000000000000000602082015250565b7f46756e6374696f6e206d7573742062652063616c6c6564207468726f7567682060008201527f64656c656761746563616c6c0000000000000000000000000000000000000000602082015250565b7f45524332303a207472616e7366657220616d6f756e742065786365656473206260008201527f616c616e63650000000000000000000000000000000000000000000000000000602082015250565b7f46756e6374696f6e206d7573742062652063616c6c6564207468726f7567682060008201527f6163746976652070726f78790000000000000000000000000000000000000000602082015250565b7f496e697469616c697a61626c653a20636f6e747261637420697320616c72656160008201527f647920696e697469616c697a6564000000000000000000000000000000000000602082015250565b7f455243313936373a206e657720696d706c656d656e746174696f6e206973206e60008201527f6f74206120636f6e747261637400000000000000000000000000000000000000602082015250565b7f45524332303a207472616e7366657220616d6f756e742065786365656473206160008201527f6c6c6f77616e6365000000000000000000000000000000000000000000000000602082015250565b7f4f776e61626c653a2063616c6c6572206973206e6f7420746865206f776e6572600082015250565b7f416464726573733a2064656c65676174652063616c6c20746f206e6f6e2d636f60008201527f6e74726163740000000000000000000000000000000000000000000000000000602082015250565b7f45524332303a207472616e736665722066726f6d20746865207a65726f20616460008201527f6472657373000000000000000000000000000000000000000000000000000000602082015250565b7f45524332303a20617070726f76652066726f6d20746865207a65726f2061646460008201527f7265737300000000000000000000000000000000000000000000000000000000602082015250565b7f496e697469616c697a61626c653a20636f6e7472616374206973206e6f74206960008201527f6e697469616c697a696e67000000000000000000000000000000000000000000602082015250565b7f45524332303a2064656372656173656420616c6c6f77616e63652062656c6f7760008201527f207a65726f000000000000000000000000000000000000000000000000000000602082015250565b7f45524332303a206d696e7420746f20746865207a65726f206164647265737300600082015250565b612f0781612873565b8114612f1257600080fd5b50565b612f1e816128b1565b8114612f2957600080fd5b5056fe416464726573733a206c6f772d6c6576656c2064656c65676174652063616c6c206661696c6564a2646970667358221220511da4b537c816e965554cbf56d0939be0faf0eace13a56ac156dc9aee367ef864736f6c63430008020033",
  "immutableReferences": {
    "641": [
      {
        "length": 32,
        "start": 1773
      },
      {
        "length": 32,
        "start": 1916
      },
      {
        "length": 32,
        "start": 2514
      },
      {
        "length": 32,
        "start": 2657
      }
    ]
  },
  "source": "// SPDX-License-Identifier: MIT\r\npragma solidity ^0.8.2;\r\n\r\nimport \"@openzeppelin/contracts-upgradeable/token/ERC20/ERC20Upgradeable.sol\";\r\nimport \"@openzeppelin/contracts-upgradeable/access/OwnableUpgradeable.sol\";\r\nimport \"@openzeppelin/contracts-upgradeable/proxy/utils/Initializable.sol\";\r\nimport \"@openzeppelin/contracts-upgradeable/proxy/utils/UUPSUpgradeable.sol\";\r\n\r\ncontract Graphitev4 is Initializable, ERC20Upgradeable, OwnableUpgradeable, UUPSUpgradeable {\r\n    /// @custom:oz-upgrades-unsafe-allow constructor\r\n    //constructor() initializer {}\r\n\r\n    \r\n    function initialize() initializer public {\r\n        __ERC20_init(\"Graphite\", \"GRAPH\");\r\n        __Ownable_init();\r\n        __UUPSUpgradeable_init();\r\n\r\n        //_mint(msg.sender, 10000 * 10 ** decimals());\r\n    }\r\n\r\n    function mint(address to, uint256 amount) public onlyOwner {\r\n        _mint(to, amount);\r\n    }\r\n\r\n    function _authorizeUpgrade(address newImplementation)\r\n        internal\r\n        onlyOwner\r\n        override\r\n    {}\r\n\r\n    function getVersion() public pure returns (string memory) {\r\n        return \"Graphite Version - 4\";\r\n    }\r\n\r\n    function getTokenName() public view returns (string memory) {\r\n        return name();\r\n    }\r\n\r\n    function getTokenSymbol() public view returns (string memory) {\r\n        return symbol();\r\n    }\r\n\r\n    function decimals() public pure override returns (uint8) {\r\n        return 0;\r\n    }\r\n}\r\n\r\n",
  "sourcePath": "D:\\Blockchain\\Project\\Graphite\\contracts\\graphitev4.sol",
  "compiler": {
    "name": "solc",
    "version": "0.8.2+commit.661d1103.Emscripten.clang"
  },
  "schemaVersion": "3.4.3",
  "updatedAt": "2021-12-23T16:16:44.867Z",
  "networkType": "ethereum",
  "devdoc": {
    "kind": "dev",
    "methods": {
      "allowance(address,address)": {
        "details": "See {IERC20-allowance}."
      },
      "approve(address,uint256)": {
        "details": "See {IERC20-approve}. Requirements: - `spender` cannot be the zero address."
      },
      "balanceOf(address)": {
        "details": "See {IERC20-balanceOf}."
      },
      "decimals()": {
        "details": "Returns the number of decimals used to get its user representation. For example, if `decimals` equals `2`, a balance of `505` tokens should be displayed to a user as `5.05` (`505 / 10 ** 2`). Tokens usually opt for a value of 18, imitating the relationship between Ether and Wei. This is the value {ERC20} uses, unless this function is overridden; NOTE: This information is only used for _display_ purposes: it in no way affects any of the arithmetic of the contract, including {IERC20-balanceOf} and {IERC20-transfer}."
      },
      "decreaseAllowance(address,uint256)": {
        "details": "Atomically decreases the allowance granted to `spender` by the caller. This is an alternative to {approve} that can be used as a mitigation for problems described in {IERC20-approve}. Emits an {Approval} event indicating the updated allowance. Requirements: - `spender` cannot be the zero address. - `spender` must have allowance for the caller of at least `subtractedValue`."
      },
      "increaseAllowance(address,uint256)": {
        "details": "Atomically increases the allowance granted to `spender` by the caller. This is an alternative to {approve} that can be used as a mitigation for problems described in {IERC20-approve}. Emits an {Approval} event indicating the updated allowance. Requirements: - `spender` cannot be the zero address."
      },
      "initialize()": {
        "custom:oz-upgrades-unsafe-allow": "constructor"
      },
      "name()": {
        "details": "Returns the name of the token."
      },
      "owner()": {
        "details": "Returns the address of the current owner."
      },
      "renounceOwnership()": {
        "details": "Leaves the contract without owner. It will not be possible to call `onlyOwner` functions anymore. Can only be called by the current owner. NOTE: Renouncing ownership will leave the contract without an owner, thereby removing any functionality that is only available to the owner."
      },
      "symbol()": {
        "details": "Returns the symbol of the token, usually a shorter version of the name."
      },
      "totalSupply()": {
        "details": "See {IERC20-totalSupply}."
      },
      "transfer(address,uint256)": {
        "details": "See {IERC20-transfer}. Requirements: - `recipient` cannot be the zero address. - the caller must have a balance of at least `amount`."
      },
      "transferFrom(address,address,uint256)": {
        "details": "See {IERC20-transferFrom}. Emits an {Approval} event indicating the updated allowance. This is not required by the EIP. See the note at the beginning of {ERC20}. Requirements: - `sender` and `recipient` cannot be the zero address. - `sender` must have a balance of at least `amount`. - the caller must have allowance for ``sender``'s tokens of at least `amount`."
      },
      "transferOwnership(address)": {
        "details": "Transfers ownership of the contract to a new account (`newOwner`). Can only be called by the current owner."
      },
      "upgradeTo(address)": {
        "details": "Upgrade the implementation of the proxy to `newImplementation`. Calls {_authorizeUpgrade}. Emits an {Upgraded} event."
      },
      "upgradeToAndCall(address,bytes)": {
        "details": "Upgrade the implementation of the proxy to `newImplementation`, and subsequently execute the function call encoded in `data`. Calls {_authorizeUpgrade}. Emits an {Upgraded} event."
      }
    },
    "version": 1
  },
  "userdoc": {
    "kind": "user",
    "methods": {},
    "version": 1
  }
}